:020000040800F2
:10000000001800205D080008590600085B0600087B
:1000100000000000000000000000000000000000E0
:100020000000000000000000000000005D06000865
:1000300000000000000000005F06000861060008E4
:10004000DD080008DD080008DD080008DD080008FC
:10005000DD080008DD080008DD080008DD080008EC
:10006000DD080008DD080008DD080008DD080008DC
:10007000DD080008DD080008DD080008DD080008CC
:10008000DD0800080000000000000000DD08000896
:1000900000000000DD08000865060008DD08000813
:1000A00000000000DD080008DD08000875060008F3
:1000B000DD08000800000000DD080008DD08000879
:1000C00010B5064C2378002B07D1054B002B02D02E
:1000D000044800E000BF0123237010BD0800002089
:1000E00000000000BC250008044B10B5002B03D015
:1000F0000349044800E000BF10BDC04600000000F6
:100100000C000020BC2500080023C25C0133002A3B
:10011000FBD1581E7047000002B4714649084900DF
:10012000095649008E4402BC7047C04602B471466D
:1001300049084900095C49008E4402BC7047C0462A
:10014000002243088B4274D303098B425FD3030A16
:100150008B4244D3030B8B4228D3030C8B420DD329
:10016000FF22090212BA030C8B4202D312120902B7
:1001700065D0030B8B4219D300E0090AC30B8B42F5
:1001800001D3CB03C01A5241830B8B4201D38B03A3
:10019000C01A5241430B8B4201D34B03C01A524148
:1001A000030B8B4201D30B03C01A5241C30A8B428B
:1001B00001D3CB02C01A5241830A8B4201D38B0276
:1001C000C01A5241430A8B4201D34B02C01A52411A
:1001D000030A8B4201D30B02C01A5241CDD2C3098C
:1001E0008B4201D3CB01C01A524183098B4201D308
:1001F0008B01C01A524143098B4201D34B01C01AF3
:10020000524103098B4201D30B01C01A5241C3086A
:100210008B4201D3CB00C01A524183088B4201D3D9
:100220008B00C01A524143088B4201D34B00C01AC5
:100230005241411A00D20146524110467047FFE731
:1002400001B5002000F006F802BDC0460029F7D035
:1002500076E770477047C04630B585B00C22002164
:1002600001A802F0A2F904221B4C1C4B6261C222BD
:10027000012523600023FF32E2612000621D6360DC
:10028000A360E360256123766376A376E376236239
:10029000D377A56200F046FB002801D000F084F976
:1002A00080235B010293802301A95B052000019557
:1002B000039300F0DDFB002801D000F075F9022364
:1002C00001A92000019300F0D3FB002801D000F029
:1002D0006BF905B030BDC046240000200024014069
:1002E00010B5040088B01422002103A802F05DF9C3
:1002F000104B22689A421BD180200F4B80009969D5
:100300000143996180219A69890202400192019A10
:100310005A6990200A435A615B69C0050B400293F9
:10032000029B062303A90393033B049300F098FC6C
:1003300008B010BD0024014000100240F0B58BB0A1
:100340001422002105A802F030F980203B4B000365
:1003500059693B4D014359615A693A4F0240802027
:100360000192019A5969C003014359615A69902663
:10037000024080200292029A596980020143596129
:1003800080215A69C90202400392039A5A692800DF
:100390000A435A615B6900220B4004933900049BB5
:1003A00000F00CFD8021F60500223000090100F06C
:1003B00005FDE0231B0200240593022305A9224822
:1003C0000793069400F04CFC204B05A905930323EA
:1003D0001F480693079400F043FC1E4B05A90593A4
:1003E000032330000693079400F03AFC022205979D
:1003F000012705A9280007920697089400F030FC11
:10040000154B05A90593032328000693079400F0D4
:1004100027FC802305A91B0130000593069707944C
:10042000089400F01DFCC02305A92800059306943C
:10043000079400F015FC0BB0F0BDC0460010024060
:1004400000040048070C00000008004803080000F2
:1004500000140048F881000038F3000010B50400D3
:10046000FFF752FEFA2382B29B002100014801F0FF
:1004700017FF10BD0001002010B5174C207861381F
:1004800004280CD8154B5969FFF750FE030F1419B7
:100490001F00012212484A405A61FFF7DFFF012284
:1004A0002100104801F0E4FF10BD02224A405A61C9
:1004B0000D48F2E704224A405A610C48EDE78022D9
:1004C000D2004A405A610A48E7E7802212014A40B6
:1004D0005A610848E1E7C046640000200004004873
:1004E000F425000800010020062600081826000850
:1004F0002A2600083C26000830B5102599B0302285
:1005000000210CA802F051F82A00002101A802F0F5
:100510004CF81822002105A802F047F812230B938B
:1005200080231B021593802301240F9511955B03F3
:100530000E3D0BA8149516930E94109400F044FCF5
:10054000072302950025210001A801930395049536
:1005500000F0CCFE05A80594079500F07FFF19B0C8
:1005600030BD000010B500F0BBF9FFF7C5FFFFF785
:10057000E5FE00F0C3F800F017F9FFF76DFE012269
:100580000249034801F074FFFEE7C0466400002002
:1005900000010020034B026810B59A4201D100F01F
:1005A000AFF910BD004801407047000001200A4B20
:1005B00082B099690143996180219A694905024095
:1005C0000092009ADA690A43DA61DB690B40019311
:1005D000019B02B07047C0460010024010B50100F8
:1005E00086B00022162000F0C3FA162000F0EAFAC6
:1005F0008020144AC0029169014391619369694660
:100600000340019302A8019B00F00CFF00F0FAFEEA
:100610000D4C0E4B0E4923600E4BE360FFF790FD2F
:1006200000230138606020002361A36001F078F9A5
:1006300003000120002B02D1200001F055F806B084
:1006400010BDC0460010024070000020004801406C
:1006500040420F00E70300007047FEE77047704715
:100660007047000010B5024801F06DF810BDC0469B
:100670007000002010B5024801F038FB10BDC046E4
:1006800000010020704700008023026882B0DB0573
:100690009A4208D10120054AD1690143D161D36949
:1006A00003400193019B02B07047C0460010024016
:1006B00010B5040086B01422002101A801F075FFD6
:1006C00080232268DB059A4213D180200A4A8002E7
:1006D000516901435161536901A903400093009B93
:1006E00090200123C0050193DB180293059300F0CD
:1006F000B7FA06B010BDC0460010024010B58EB06B
:100700001022002103A801F050FF0822002101A8B7
:1007100001F04BFF1C22002107A801F046FF8023B7
:10072000204CDB050122236000235242200063603D
:10073000A360E2602361A36101F0F2F8002801D018
:10074000FFF732FF802303A95B012000039301F030
:10075000DFF9002801D0FFF727FF200001F008F99A
:10076000002801D0FFF720FF002301A920000193FA
:10077000029301F063FA002801D0FFF715FF002271
:10078000602307A920000793089209920B9201F0B9
:1007900053F9002801D0FFF707FF2000FFF788FF7B
:1007A0000EB010BDB80000200C480D4B10B5036012
:1007B000E1235B0243600C23002143610B3B1A00E1
:1007C0008160C16001618161C1610162416201F0CA
:1007D0007BFE002801D0FFF7E7FE10BD00010020DE
:1007E0000038014010B5040088B01422002103A88D
:1007F00001F0DBFE174B22689A4228D18020164B6D
:10080000C00199690143996180219A698902024076
:100810000192019A5A6990200A435A615B69C005A6
:100820000B400293029BB0235B01039302230493CA
:100830000133069303A9023B079300F011FA00224B
:100840001B20110000F094F91B2000F0BBF908B048
:1008500010BDC046003801400010024013488546D4
:1008600013480168090E134A914205D112481349F1
:10087000016013481349016013481449144A0023C6
:1008800002E0D458C4500433C4188C42F9D3114A3E
:10089000114C002301E013600432A242FBD3FFF7A6
:1008A000F1FE01F055FEFFF75DFEFEE700180020A7
:1008B000040000001F0000001810024001000000AA
:1008C000000001400000000000000020080000209F
:1008D000742600080800002088010020FEE70000C0
:1008E0001023064A10B5116800200B431360FFF770
:1008F00075FEFFF75BFE002010BDC04600200240E1
:10090000034A044B11681B785B1813607047C0469C
:100910008401002004000020014B18687047C04685
:1009200084010020F8B504000120002C7ED0A36BC8
:10093000002B06D122003432E36320001370FFF74E
:10094000CFFCA36BDB0600D585E004222368986802
:10095000104000D07FE0A26B4249114002220A43BE
:100960000321A2639A680A40012A05D1196811423D
:100970000ED1DA6812040BD41821DA688A43A16810
:100980000A43DA60196962688900890811431961AC
:10099000DA6835490A40DA60257E627EAD03D2030B
:1009A0001543A26AA17E013A561EB2411603E268BF
:1009B0004F03154322692F43022A00D10420621DF0
:1009C000D27F52003A4332430243E07E012804D1F1
:1009D00000292CD1802149020A43C220E169FF305D
:1009E000814202D0206A01430A438020D968400531
:1009F0001143D960E16A814202D0481E062807D817
:100A0000072558692940A84358615869014359612D
:100A1000DB6816490B40934211D100200322E063AA
:100A2000A36B93431A0001231343A363F8BD202152
:100A3000A56B2943A163E16B0843E063CDE7122274
:100A4000A36B012093431A0010231343A363E36BAA
:100A50000343E363EAE71023A26B01201343A3637C
:100A6000E4E7C046FDFEFFFF1902FEFFE7FF3F83FC
:100A7000F7B50022040001923434227803000220EA
:100A8000012A2BD001221D68DE6AA8682270400767
:100A90005AD40B682F481F00844648689A40103F7C
:100AA00060453BD0A86A10438022A8625205964256
:100AB0000FD0013E062E0CD98A68072168690840CC
:100AC000824206D068690A408843686168690243C7
:100AD0006A61022F03D9002000232370FEBD1E4A45
:100AE00080201168102B15D0112B15D1C0030143A4
:100AF0001160102BEFD1194B19491868FFF720FB33
:100B00000A2358430190019B002BE4D0019B013B39
:100B10000193F8E70004EAE74004E8E7A96A914393
:100B2000A962022FD7D80C4A1168102B0AD0113BAA
:100B3000581E83410B485B4203400B481B180B4077
:100B40001360C8E7094BFAE72021986B01439963CA
:100B50001000C1E70110000008270140000000203C
:100B600040420F00000040FFFFFFBFFFFFFF7FFF7D
:100B700030B5FF2503242A00C3B21C40E400A24084
:100B800089012940D243A14000280ADBC0240B4B35
:100B900080088000C018A40003591A401143015175
:100BA00030BD0F200340083B05489B089B001B18E5
:100BB000D86902401143D961F2E7C04600E100E084
:100BC00000ED00E0002805DB1F2318401E3B83409A
:100BD000014A13607047C04600E100E030B5851C53
:100BE000EB7F441C022B05D00423836300230120E8
:100BF000E37730BD0E2103681A688A431A60012228
:100C0000196891431960016CC36B100088405860EB
:100C10000020EA77E077ECE770B5841CE37F022BD5
:100C200004D004238363033B180070BD0E210368C6
:100C3000056C1A688A431A60012219689143196089
:100C40001100A940C36B5960E27700248318426BFE
:100C5000DC771300A242E7D090472300E4E70000CE
:100C6000F0B50B6887B003930023039ADA4001D1F3
:100C700007B0F0BD01229A4094466446039A224090
:100C8000019200D18EE003254A685E0017000092B1
:100C9000B54010229743EA4302927A1E012A10D8E7
:100CA0008468029A01251440CA68B24022438260D7
:100CB000624644689443009A12092A409A402243AB
:100CC0004260C468029A14408A68B2402243C260FB
:100CD000022F0DD107240F251C40A400A540DA08DF
:100CE00092008218176AAF430D69A5402F4317621F
:100CF00003240268029D1540009A2240B2408024DD
:100D00001543009A6405056022424BD001250F2748
:100D1000254A94692C43946192699C082A400235C3
:100D20001D40AD00AF400592059A204AA400A418CA
:100D3000A6680022BE439027FF05B84208D01C4F8A
:100D40000132B84204D01B4F0432B84200D1033AFA
:100D5000AA403243A260184A019C1668019D009F78
:100D6000E4433543FF0301D4350025401560566840
:100D7000019D009F3543BF0301D4350025405560D8
:100D80009668019D009F3543FF0201D43500254040
:100D90009560D568019E009F2E43BF0201D4254077
:100DA0002E00D660013360E70010024000000140D1
:100DB000000400480008004800040140002A01D057
:100DC000816170478162FCE7F0B5040085B00028BE
:100DD00002D1012005B0F0BD0368DB0733D42368DE
:100DE0009B0700D587E023681B0700D5C8E0236870
:100DF0005B0700D5EBE02368DB061AD56269BC4DC2
:100E00000423012A00D057E1696B02260B436B6370
:100E10006B6B1A436A63FFF77FFD07006B6B33420E
:100E200000D142E1F8216A6BA3698A43DB001343D6
:100E30006B6323689B0600D566E1626A002A00D0D6
:100E4000A3E10020C6E70C21A94D6A680A40042AE4
:100E50000BD06B680B40082B0ED1C0226B6852027E
:100E6000134080225202934206D12B689B03B6D5D1
:100E70006368002BB3D1ACE76368012B13D18023E7
:100E80002A685B0213432B60FFF746FD80260700AC
:100E9000B6022B683342A2D1FFF73EFDC01B642887
:100EA000F7D9032096E7002B15D12B68914A8026AD
:100EB00013402B602B68904AB60213402B60FFF75B
:100EC0002BFD07002B68334289D0FFF725FDC01B9F
:100ED0006428F7D9E5E7052B05D180232A68DB02D2
:100EE00013432B60CBE72B68824A13402B602B689F
:100EF000814A1340C7E70C227D4D6B6813420BD02B
:100F00006B681340082B16D1C0226B685202134045
:100F10008022120293420ED12B689B0703D5E3680F
:100F2000012B00D055E7F8212A6823698A43DB00AA
:100F300013432B6057E7E2680123002A0FD02A6889
:100F4000022613432B60FFF7E7FC07002B683342B0
:100F5000E9D1FFF7E1FCC01B0228F7D9A1E72A6815
:100F600002269A432A60FFF7D7FC07002B6833421A
:100F700000D138E7FFF7D0FCC01B0228F6D990E774
:100F8000E26901235A4D002A10D06A6A02261343EF
:100F90006B62FFF7C1FC07006B6A334200D026E7A3
:100FA000FFF7BAFCC01B0228F6D97AE76A6A022664
:100FB0009A436A62FFF7B0FC07006B6A334200D1C4
:100FC00015E7FFF7A9FCC01B0228F6D969E78022C4
:100FD0000021474D5205EB690091134208D1EB699E
:100FE0001343EB61EB6913400393039B01230093CD
:100FF0008027424E7F0033683B4206D0A368012B16
:1010000013D12A6A13432B6230E033683B433360C9
:10101000FFF782FC019033683B42EFD1FFF77CFC85
:10102000019BC01A6428F6D93BE70122002B14D19A
:101030002B6A022793432B622B6A033293432B6262
:10104000FFF76AFC06002B6A3B4225D0FFF764FCE1
:101050002B4B801B9842F6D923E7052B0BD1296A2D
:10106000013B0B432B622B6A1A432A62FFF754FCA5
:10107000022706000DE02B6A934304222B622B6AA1
:101080009343C0E7FFF748FC1D4B801B984200D9F3
:1010900007E72B6A3B42F5D0009B012B00D0AAE664
:1010A000EB69184A1340EB61A5E6FFF735FCC01B5E
:1010B000022800D8B2E6F4E6053203D16A6B9A43FF
:1010C0006A63AFE66A6B0226134301226B636B6BA4
:1010D00093436B63FFF720FC07006B6B334200D137
:1010E000A7E6FFF719FCC01B0228F6D9D9E6C046CF
:1010F00000100240FFFFFEFFFFFFFBFF00700040FB
:1011000088130000FFFFFFEF0C21534D6A680A406F
:101110008A4209D06B680B40082B0ED1C0226B6845
:1011200052021340934208D16B6BDB0300D484E678
:10113000236A012B00D04CE67FE6236A002B11D0F6
:1011400080266B6B760233436B63FFF7E5FB07008A
:101150006B6B334200D070E6FFF7DEFBC01B02284A
:10116000F6D99EE66B6B3D4A802613406B63FFF712
:10117000D3FB070076026B6B334200D15DE6FFF7CD
:10118000CBFBC01B0228F6D98BE60C20324B5968EA
:101190001D000140082944D01B6831490B402B60D9
:1011A000022A2FD1FFF7B8FB80260700B6042B6870
:1011B000334221D10F22EB6A9343226B1343EB623C
:1011C000A16AE36A6A680B43264980240A401343F4
:1011D0006B6080232A685B0413432B60FFF79CFB42
:1011E0000600A4042B68234200D02AE6FFF794FBF4
:1011F000801B0228F6D954E6FFF78EFBC01B02289D
:10120000D5D94EE6FFF788FB80240600A4042B689E
:10121000234200D115E6FFF77FFB801B0228F6D999
:101220003FE6012A00D1D4E5C0225868A16A5202E3
:10123000DB6A02408A4200D0CBE50F221340226BCA
:10124000934200D0C5E5F0239B031840E36AC01A1F
:10125000431E9841C0B2BDE500100240FFFFFEFFF3
:10126000FFFFFFFEFF7FC2FF30B51B4C89B010228D
:101270002100684601F090F9210004AD10221031E0
:10128000280001F089F90C20144A536818400828F6
:1012900009D00C3843425841114B40421840114B81
:1012A000C01809B030BD0F206C46D26A990C0140BD
:1012B0000240645CA95CC0228020520213404002BC
:1012C000834201D1074802E09342FBD10648FEF772
:1012D00037FF6043E5E7C046D42500080010024010
:1012E000005A620200127A00006CDC02F7B50500B9
:1012F0000F00002801D10120FEBD01223B4C2368D4
:1013000013408B421CD329688B0722D4CB072FD4E0
:10131000012322681A40BA4259D82B68344C5B0723
:101320005CD4FFF7A1FF6368324A1B061B0FD35C36
:10133000D840314B18600020FFF750F90020DBE760
:10134000236893430B432360236813408B42D2D11D
:10135000D9E7274A4B0704D5E0235068DB00034355
:101360005360F02053688343A86803435360CDE77C
:101370006A681F4E012A1AD133689B03BBD503212B
:1013800073688B4313437360FFF7C6FA01900C2315
:1013900072681A406B689B009A42B9D0FFF7BCFA9A
:1013A000019BC01A154B9842F1D90320A4E7022AE9
:1013B00003D133689B01E2D49DE7032A03D1736B09
:1013C000DB03DCD497E733689B07D8D493E7226824
:1013D0009A43226022681A429FD08CE76368084AC9
:1013E0001340EA68134363609BE7C0460020024055
:1013F000001002404E260008000000208813000064
:10140000FFF8FFFF044B054A5B685B055B0FD35C8D
:10141000034A1068D8407047001002405E2600085A
:1014200000000020072310B503240360094B5A680D
:10143000224042605A68ED3422408260E0225B68BC
:10144000D20013400122C360034B1B6813400B60A2
:1014500010BDC0460010024000200240F0B50368F5
:1014600085B00500DB0328D580220021404C5205C1
:10147000E3690091134208D1E3691343E361E3692F
:1014800013400393039B012300938027394E7F0071
:1014900033683B4238D0C022236A92001340364E54
:1014A00044D1236A1E406B681E43009B2662012BB9
:1014B00003D1E369314A1340E3612A68D30706D5B3
:1014C00003202B490B6B8343A86803430B639306EC
:1014D00006D5102026490B6B8343E86803430B6352
:1014E000930306D5802022490B6B8343686903432D
:1014F0000B630020530517D540211D4A136B8B4306
:1015000029690B4313630FE033683B433360FFF7F4
:1015100003FA019033683B42BDD1FFF7FDF9019B0F
:10152000C01A6428F6D9032005B0F0BD69680A40E6
:101530009A42B6D08023226A206A11005B020343DC
:101540002362236A0E483140034023622162D3079D
:10155000A7D5FFF7E1F907000222236A1342A0D1C1
:10156000FFF7DAF9074BC01B9842F5D9DBE7C04615
:101570000010024000700040FFFCFFFFFFFFFFEF84
:10158000FFFFFEFF881300000122036A70B593433A
:101590000362036A44688569723295430A68154399
:1015A000022293438A681343114A904205D0114E98
:1015B000B04202D0104EB04213D10826B343CE68D9
:1015C00033430426B343904205D00A4A904202D0E6
:1015D000094A904205D1094A8E6922404C69344338
:1015E00014434A68446085614263036270BDC0462B
:1015F000002C01400044014000480140FFFCFFFF77
:1016000070B57325036A164A13400362036A426881
:10161000C469AC430D682C43124D2B408D682D02DC
:101620002B43114DA8420ED1104D1D40CB681B021B
:101630002B430F4D2B400F4D4E6915408A693243A5
:1016400012012A4305E00C4DA842F4D00B4DA842EC
:10165000F1D042604A68C461C263036270BDC04693
:10166000FFFEFFFFFFFDFFFF002C0140FFF7FFFF24
:10167000FFFBFFFFFFCFFFFF004401400048014098
:10168000036A124A30B513400362026A104C436881
:10169000C56925400C68240225430E4C22408C6805
:1016A000240322430C4CA04205D00C4CA04202D093
:1016B0000B4CA04204D10B4C23404C69A4012343A2
:1016C00043604B68C5610364026230BDFFEFFFFFFA
:1016D000FF8CFFFFFFDFFFFF002C014000440140B3
:1016E00000480140FFBFFFFF030001223D3319788E
:1016F00091421AD1022119700368D9681143D96047
:101700000C498B4206D08021C9058B4202D00A4980
:101710008B420CD10722996811400022062904D07F
:10172000196801320A431A600022100070471868D5
:101730000243F8E7002C0140000400407047704766
:101740007047704770470222036810B5196904009A
:1017500011420ED0D96811420BD0053A1A619B692B
:10176000043202779B0700D179E0FFF7E9FF0023FD
:101770002377042223681969114210D0D9681142D5
:101780000DD0093A1A61073222779A69C0239B006B
:1017900020001A4269D0FFF7D3FF002323770822E5
:1017A0002368196911420ED0D96811420BD0113A41
:1017B0001A61DB690D32227720009B075BD0FFF7AF
:1017C000BFFF00232377102223681969114210D02C
:1017D000D96811420DD0213A1A6119322277DA699B
:1017E000C0239B0020001A424BD0FFF7A9FF002323
:1017F0002377012223681969114207D0D968114261
:1018000004D0033A1A612000FEF7C4FE8022236848
:101810001969114208D0D968114205D0023AFF3A3D
:101820001A61200000F039FA402223681969114238
:1018300007D0D968114204D0813A1A612000FFF71D
:1018400081FF202223681969114207D0D96811420B
:1018500004D0413A1A61200000F01EFA10BDFFF7D3
:101860006EFF2000FFF76DFF81E7FFF768FF2000A4
:10187000FFF767FF91E7FFF762FF2000FFF761FFC7
:101880009FE7FFF75CFF2000FFF75BFFAFE700007B
:101890001D4A10B50368904206D08024E405A0429A
:1018A00002D01A4CA0420CD17024A3434C682343AD
:1018B00090420FD08024E405A0420BD0134CA042EC
:1018C00008D0134CA04205D0124CA04202D0124CBA
:1018D000A04203D1114C2340CC6823438024A3436E
:1018E0004C69234303608B68C3620B688362904238
:1018F00005D0084B984202D0074B984201D10B69A2
:1019000003630123436110BD002C0140000400402B
:10191000002000400044014000480140FFFCFFFF60
:1019200070B504000120002C21D025003D352B7816
:10193000DBB2002B05D122003C3213702000FEF7F1
:10194000A3FE022320682B70211DFFF7A1FF2200B8
:1019500001230020463213704534083A1370537047
:101960009370D37013715371937123702B7070BD8A
:1019700070B504000120002C21D025003D352B78C6
:10198000DBB2002B05D122003C3213702000FFF7A0
:10199000D5FE022320682B70211DFFF779FF22005E
:1019A00001230020463213704534083A13705370F7
:1019B0009370D37013715371937123702B7070BD3A
:1019C0001022036A70B593430362026A154D43689F
:1019D00084692C400D682D022C432025AA438D6874
:1019E0002D012A43104DA8420FD18025AA4315008E
:1019F000CA6812012A434025AA430C4D4E691D4076
:101A00008B6933439B002B4305E0094DA842F4D07A
:101A1000084DA842F1D043604B6884618363026241
:101A200070BDC046FF8CFFFF002C0140FFF3FFFF9D
:101A3000004401400048014070B506003C36337850
:101A400004000D000220012B1FD0012333700C2A4B
:101A500019D81000FEF76AFB071717171A17171780
:101A60002B1717173C002068FFF78EFD082223680C
:101A700099690A4304219A619A698A439A619A6929
:101A800029690A439A610020307070BD2068FFF711
:101A900097FF80222368120199690A439A619A6923
:101AA00014490A409A612A6999691202E9E7206893
:101AB000FFF7A6FD08222368D9690A430421DA61E9
:101AC000DA698A43DA61DA6929690A43DA61DAE7AD
:101AD0002068FFF7D5FD802223681201D9690A43E7
:101AE000DA61DA6903490A40DA612A69D9691202BE
:101AF000EBE7C046FFFBFFFF30B58468034D0A43A8
:101B00001B022C4013432343836030BDFF00FFFFC3
:101B1000F8B5050002233C352A7804001800012A94
:101B200016D02600012720683D362F703370836859
:101B3000404A134083600B68402B65D014D8102BAB
:101B40000BD006D8002B08D001230020337028705A
:101B5000F8BD202B01D0302BF6D170228168914343
:101B6000693A13430B431AE0602B35D019D8502B38
:101B7000EAD14A68CB68016A046A1B01BC43F027BA
:101B800004628469BC4323430A24A1430A4383615A
:101B900002627022836893431A00572313438360C1
:101BA000D2E7702B0DD0802292019342CCD1CB682A
:101BB0004A688968FFF7A0FF80232268DB019168EB
:101BC00007E0CB684A688968FFF796FF77232268A9
:101BD00091680B439360B7E710244B68CA68016AA9
:101BE000154FA1430162846912033C402243A024A3
:101BF000016A82617022A1431B010B430362836867
:101C000093431A006723C9E74A68CB68016A046AEC
:101C10001B01BC43F02704628469BC4323430A24AC
:101C2000A1430A43836102627022836893431A00CE
:101C30004723B3E78800FFFFFF0FFFFF70B50400E5
:101C400002223C34257803001000012D1FD01D0016
:101C500070261B6801383D3520702A7058689A68D4
:101C6000B0430E68304358600948834206D0802054
:101C7000C005834202D00748834204D180204968CE
:101C800082430A439A60012300202B70207070BDAC
:101C9000002C0140000400407047704703680B4966
:101CA0001A680A401A609A682331FF318A439A60A1
:101CB000026E8A4203D11A680F318A431A602023C8
:101CC000C3670023036643667047C046DFFEFFFF1D
:101CD00070477047406A0023020010B55A321380E3
:101CE000083A1380FFF7F5FF10BD7047F8B5036899
:101CF0000400DA691968986884467F4802420BD16B
:101D00002020024200D176E0014200D173E0636EF0
:101D10002000002B65D165E001206646064002D117
:101D2000764D294267D0251D024205D0CF0503D547
:101D30001862EF6F3843E8670220024206D0002E97
:101D400004D01862EF6F00183843E867042002429D
:101D500006D0002E04D01862EF6F02383843E867CF
:101D6000100708D5880601D4002E04D00820186278
:101D7000EE6F3043E86780200001024206D04E013A
:101D800004D518622023E86F0343EB67EB6F002B49
:101D900028D020231A4206D0194204D0636E002BAB
:101DA00001D0200098472368EE6F9B6820005B06F7
:101DB00002D428231E401AD0FFF770FF4021236869
:101DC0009A680A420FD09A68206F8A439A60002866
:101DD00009D04B4B4363FEF71FFF002802D0206F52
:101DE000436B9847F8BD2000FFF773FFFAE7FFF752
:101DF00070FFEE67F6E7276E012F58D110252A42B3
:101E000055D0294253D040211D629A680A4031D0F2
:101E1000206F0268526892B2002AE3D0260058363A
:101E200031889142DED95A218C46A44461460A8009
:101E30008269202A14D01A6832490A401A609A68C6
:101E40004231BA439A609A68FF318A439A602022ED
:101E5000E267002222661A68AA431A60FEF7BEFEF5
:101E600023005A331B883188C91A89B22000FFF732
:101E70003CFFB7E720005A3006880188B6B2002937
:101E8000B0D0210058310988891B89B20029A9D016
:101E900018681D4E304018609868B843986020203C
:101EA000E067226662661A68AA431A60DEE780204D
:101EB0004003024207D065466D0204D51862200037
:101EC00000F044FB8EE78020024203D0014201D0A3
:101ED000A36E1DE74020024200D183E7014200D1FA
:101EE00080E71A6882431A602023A367002320003A
:101EF000A366FFF7EDFE75E70F0800002001000460
:101F0000D51C0008FFFEFFFFDFFEFFFFC26F10B50C
:101F100003680400222A34D102005C329B8C1288B0
:101F20001340426D13700200436D5A320133436512
:101F30001388013B9BB21380128892B2002A1BD1F6
:101F40000368124819680140196099682330FF300E
:101F5000814399602021E1676266226E82420CD142
:101F60001A6810398A431A602300583319882000F0
:101F7000FFF7BBFE0023236610BD2000FEF77CFAAE
:101F8000F8E7082299690A439A61F5E7DFFEFFFF47
:101F9000C26F10B503680400222A32D121005C31DF
:101FA000988C0988626D01401180210002326265BF
:101FB0005A310A88013A92B20A800A8892B2002AFB
:101FC0001AD1196811480140196099682330FF300F
:101FD000814399602021E1676266226E82420CD1C2
:101FE0001A6810398A431A60230058331988200070
:101FF000FFF77BFE0023236610BD2000FEF73CFAAE
:10200000F8E7082299690A439A61F5E7DFFEFFFFC6
:1020100070B504002569A36802682B436569C1692E
:102020002B4310683D4D0B43284003431360536816
:102030003B48256A0340E06803435360A369906806
:102040002B43384D284003439360374B9A4212D1BB
:102050000322364B1B6B1340354AD05C80231B0296
:1020600099420DD0082809D8FEF760F841084908C0
:102070004608080830002F4B9A4242D0012049E020
:102080000828FBD8FEF748F841FA08FA05FAFAFAE8
:102090001F00FFF7E9F83AE02748636840005B0853
:1020A000C0186168FEF74CF803041A0C2349103A73
:1020B0008A42E3D80F221B03904380B222685B0F51
:1020C0001843D06025E080200002E6E7802000026F
:1020D000636861685B081818FEF732F880B2020086
:1020E000164B103A9A42C9D82368D86011E0FFF71E
:1020F00089F90028ECD10CE0FFF7B6F8F9E70E48B3
:10210000E6E780231B029942F1D1FFF77BF9002813
:10211000C3D1002000236366A36670BDF369FFEF9F
:10212000FFCFFFFFFFF4FFFF003801400010024027
:10213000662600080044004000127A00EFFF00000D
:10214000436A30B5DA0706D50168284C4A68224050
:10215000846A22434A609A0706D50168244C4A687B
:102160002240C46A22434A605A0706D50168214CBE
:102170004A682240046B22434A601A0706D5016868
:102180001D4C4A682240446B22434A60DA0606D559
:1021900001681A4C8A682240846B22438A609A063E
:1021A00006D50168164C8A682240C46B22438A60B7
:1021B0005A0610D50168134D4A68046C2A40224320
:1021C0004A6080225203944205D14A680E4C224054
:1021D000446C22434A601B0606D502680B495368CB
:1021E0000B40816C0B43536030BDC046FFFFFDFFC9
:1021F000FFFFFEFFFFFFFBFFFF7FFFFFFFEFFFFF84
:10220000FFDFFFFFFFFFEFFFFFFF9FFFFFFFF7FF76
:10221000F7B5802704000E00150001933F012268E6
:10222000D36933409B1B59424B41AB4201D0002044
:102230001CE0089B0133F3D0FEF76EFB019B089A6C
:10224000C01A2368904201D8002A10D11A68134995
:102250000A401A609A68A331FF318A439A602023AA
:10226000A367E3670023032074342370FEBD0421B9
:102270001A680A42D3D0DA693A42D0D01F621A688B
:1022800006490A401A609A68A331FF318A439A606E
:102290002023221DA367E367D367E3E75FFEFFFF09
:1022A000F0B587B00593836F04000D00170002207E
:1022B000202B4BD10138002948D0002A46D080235A
:1022C000A2685B019A4204D12369002B01D101422B
:1022D0003CD12600743633780220012B36D00123FE
:1022E00000223370231DDA672123A367FEF714FB56
:1022F000230050331F8002331F8003938023A26882
:1023000004905B0100279A4204D12369BB4201D1AA
:102310002F001D0000233370230052331A88059BC1
:1023200092B20093049B002A08D140212000FFF7BD
:102330006FFF002809D12023A36707E00022802136
:102340002000FFF765FF002802D0032007B0F0BD92
:102350002268002D0BD13B880237DB05DB0D13858E
:10236000039B039A1B88013B9BB21380D4E72B7815
:1023700001351385F4E7000073B500260400031D42
:10238000DE67FEF7C9FA236805001B681B0716D431
:1023900023681B685B070AD580210F4B002200933E
:1023A000C9032B002000FFF733FF002812D12023A0
:1023B0000020A367E3672066743420700BE080215F
:1023C000054B32000093890303002000FFF720FF34
:1023D0000028DDD0032076BDFFFFFF010300583346
:1023E00010B5416580241A805A80002281684266B7
:1023F00064010433A14223D10269002A1ED1194A83
:102400001A800022031DDA6722230268C3679468DA
:10241000213B2343936080235B01994220D10369D0
:10242000002B1DD1104B436603000020743318703D
:10243000902311685B000B43136010BDFF22DFE7A0
:10244000002904D10269002AF8D07F22D8E780242D
:102450006405A142D4D10269002AF6D03F22CFE719
:10246000024BE0E7FF010000911F00080D1F00086C
:1024700070B5C46F03000220202C24D1013800293C
:1024800021D0002A1FD080249D686401A54204D178
:102490001C69002C01D1014215D11C00743425782F
:1024A0000220012D0FD00138207000201866186816
:1024B0004468240204D580240568E4042C430460A5
:1024C0001800FFF78BFF70BDF8B504000F00160071
:1024D0001D00002801D10120F8BD836F002B04D11D
:1024E000020074321370FEF77DF924230121226863
:1024F000A367136820008B431360FFF789FD012851
:10250000E9D0636A002B02D02000FFF719FE802279
:102510002368D201996876050A439A609A68094946
:102520002D040A4017439F601A683543064E200069
:102530001640012235431D6019680A431A60FFF7EF
:102540001BFFC9E7FF7FFFFFFFFF00FC7047000094
:1025500070B500260C4D0D4C641BA410A64209D189
:10256000002600F02BF80A4D0A4C641BA410A6426A
:1025700005D170BDB300EB5898470136EEE7B300C4
:10258000EB5898470136F2E76C2600086C260008E5
:102590006C26000870260008002310B59A4200D16E
:1025A00010BDCC5CC4540133F8E703001218934209
:1025B00000D1704719700133F9E70000F8B5C04643
:1025C000F8BC08BC9E467047F8B5C046F8BC08BCCD
:0425D0009E4670476C
:1025D40002030405060708090A0B0C0D0E0F101060
:1025E4000102030405060708090A0B0C0D0E0F105F
:1025F40056616C76652031206368616E6765640A94
:102604000D0056616C76652032206368616E6765E3
:10261400640A0D0056616C76652033206368616E30
:102624006765640A0D0056616C7665203420636822
:10263400616E6765640A0D0056616C76652035200D
:102644006368616E6765640A0D00000000000000A5
:10265400000001020304060708090000000001024B
:08266400030400040802000059
:04266C00E900000879
:04267000C10000089D
:0826740000127A0001000000D1
:040000050800085D8A
:00000001FF
